{
  "_format": "hh-sol-artifact-1",
  "contractName": "HoloNFT",
  "sourceName": "contracts/HoloNFT.sol",
  "abi": [
    {
      "inputs": [],
      "stateMutability": "nonpayable",
      "type": "constructor"
    },
    {
      "anonymous": false,
      "inputs": [
        {
          "indexed": true,
          "internalType": "address",
          "name": "owner",
          "type": "address"
        },
        {
          "indexed": true,
          "internalType": "address",
          "name": "approved",
          "type": "address"
        },
        {
          "indexed": true,
          "internalType": "uint256",
          "name": "tokenId",
          "type": "uint256"
        }
      ],
      "name": "Approval",
      "type": "event"
    },
    {
      "anonymous": false,
      "inputs": [
        {
          "indexed": true,
          "internalType": "address",
          "name": "owner",
          "type": "address"
        },
        {
          "indexed": true,
          "internalType": "address",
          "name": "operator",
          "type": "address"
        },
        {
          "indexed": false,
          "internalType": "bool",
          "name": "approved",
          "type": "bool"
        }
      ],
      "name": "ApprovalForAll",
      "type": "event"
    },
    {
      "anonymous": false,
      "inputs": [
        {
          "indexed": true,
          "internalType": "address",
          "name": "previousOwner",
          "type": "address"
        },
        {
          "indexed": true,
          "internalType": "address",
          "name": "newOwner",
          "type": "address"
        }
      ],
      "name": "OwnershipTransferred",
      "type": "event"
    },
    {
      "anonymous": false,
      "inputs": [
        {
          "indexed": true,
          "internalType": "address",
          "name": "from",
          "type": "address"
        },
        {
          "indexed": true,
          "internalType": "address",
          "name": "to",
          "type": "address"
        },
        {
          "indexed": true,
          "internalType": "uint256",
          "name": "tokenId",
          "type": "uint256"
        }
      ],
      "name": "Transfer",
      "type": "event"
    },
    {
      "inputs": [],
      "name": "PRICE",
      "outputs": [
        {
          "internalType": "uint256",
          "name": "",
          "type": "uint256"
        }
      ],
      "stateMutability": "view",
      "type": "function"
    },
    {
      "inputs": [
        {
          "internalType": "address",
          "name": "to",
          "type": "address"
        },
        {
          "internalType": "uint256",
          "name": "tokenId",
          "type": "uint256"
        }
      ],
      "name": "approve",
      "outputs": [],
      "stateMutability": "nonpayable",
      "type": "function"
    },
    {
      "inputs": [
        {
          "internalType": "address",
          "name": "owner",
          "type": "address"
        }
      ],
      "name": "balanceOf",
      "outputs": [
        {
          "internalType": "uint256",
          "name": "",
          "type": "uint256"
        }
      ],
      "stateMutability": "view",
      "type": "function"
    },
    {
      "inputs": [
        {
          "internalType": "uint256",
          "name": "tokenId",
          "type": "uint256"
        }
      ],
      "name": "getApproved",
      "outputs": [
        {
          "internalType": "address",
          "name": "",
          "type": "address"
        }
      ],
      "stateMutability": "view",
      "type": "function"
    },
    {
      "inputs": [
        {
          "internalType": "address",
          "name": "owner",
          "type": "address"
        },
        {
          "internalType": "address",
          "name": "operator",
          "type": "address"
        }
      ],
      "name": "isApprovedForAll",
      "outputs": [
        {
          "internalType": "bool",
          "name": "",
          "type": "bool"
        }
      ],
      "stateMutability": "view",
      "type": "function"
    },
    {
      "inputs": [
        {
          "internalType": "string",
          "name": "URI",
          "type": "string"
        }
      ],
      "name": "mintNFT",
      "outputs": [],
      "stateMutability": "payable",
      "type": "function"
    },
    {
      "inputs": [],
      "name": "name",
      "outputs": [
        {
          "internalType": "string",
          "name": "",
          "type": "string"
        }
      ],
      "stateMutability": "view",
      "type": "function"
    },
    {
      "inputs": [],
      "name": "owner",
      "outputs": [
        {
          "internalType": "address",
          "name": "",
          "type": "address"
        }
      ],
      "stateMutability": "view",
      "type": "function"
    },
    {
      "inputs": [
        {
          "internalType": "uint256",
          "name": "tokenId",
          "type": "uint256"
        }
      ],
      "name": "ownerOf",
      "outputs": [
        {
          "internalType": "address",
          "name": "",
          "type": "address"
        }
      ],
      "stateMutability": "view",
      "type": "function"
    },
    {
      "inputs": [],
      "name": "renounceOwnership",
      "outputs": [],
      "stateMutability": "nonpayable",
      "type": "function"
    },
    {
      "inputs": [
        {
          "internalType": "string",
          "name": "tokenURI",
          "type": "string"
        }
      ],
      "name": "reserveNFT",
      "outputs": [],
      "stateMutability": "nonpayable",
      "type": "function"
    },
    {
      "inputs": [
        {
          "internalType": "address",
          "name": "from",
          "type": "address"
        },
        {
          "internalType": "address",
          "name": "to",
          "type": "address"
        },
        {
          "internalType": "uint256",
          "name": "tokenId",
          "type": "uint256"
        }
      ],
      "name": "safeTransferFrom",
      "outputs": [],
      "stateMutability": "nonpayable",
      "type": "function"
    },
    {
      "inputs": [
        {
          "internalType": "address",
          "name": "from",
          "type": "address"
        },
        {
          "internalType": "address",
          "name": "to",
          "type": "address"
        },
        {
          "internalType": "uint256",
          "name": "tokenId",
          "type": "uint256"
        },
        {
          "internalType": "bytes",
          "name": "_data",
          "type": "bytes"
        }
      ],
      "name": "safeTransferFrom",
      "outputs": [],
      "stateMutability": "nonpayable",
      "type": "function"
    },
    {
      "inputs": [
        {
          "internalType": "address",
          "name": "operator",
          "type": "address"
        },
        {
          "internalType": "bool",
          "name": "approved",
          "type": "bool"
        }
      ],
      "name": "setApprovalForAll",
      "outputs": [],
      "stateMutability": "nonpayable",
      "type": "function"
    },
    {
      "inputs": [
        {
          "internalType": "bytes4",
          "name": "interfaceId",
          "type": "bytes4"
        }
      ],
      "name": "supportsInterface",
      "outputs": [
        {
          "internalType": "bool",
          "name": "",
          "type": "bool"
        }
      ],
      "stateMutability": "view",
      "type": "function"
    },
    {
      "inputs": [],
      "name": "symbol",
      "outputs": [
        {
          "internalType": "string",
          "name": "",
          "type": "string"
        }
      ],
      "stateMutability": "view",
      "type": "function"
    },
    {
      "inputs": [
        {
          "internalType": "uint256",
          "name": "tokenId",
          "type": "uint256"
        }
      ],
      "name": "tokenURI",
      "outputs": [
        {
          "internalType": "string",
          "name": "",
          "type": "string"
        }
      ],
      "stateMutability": "view",
      "type": "function"
    },
    {
      "inputs": [
        {
          "internalType": "address",
          "name": "from",
          "type": "address"
        },
        {
          "internalType": "address",
          "name": "to",
          "type": "address"
        },
        {
          "internalType": "uint256",
          "name": "tokenId",
          "type": "uint256"
        }
      ],
      "name": "transferFrom",
      "outputs": [],
      "stateMutability": "nonpayable",
      "type": "function"
    },
    {
      "inputs": [
        {
          "internalType": "address",
          "name": "newOwner",
          "type": "address"
        }
      ],
      "name": "transferOwnership",
      "outputs": [],
      "stateMutability": "nonpayable",
      "type": "function"
    },
    {
      "inputs": [],
      "name": "withdraw",
      "outputs": [],
      "stateMutability": "payable",
      "type": "function"
    }
  ],
  "bytecode": "0x60806040523480156200001157600080fd5b506040518060400160405280600781526020017f486f6c6f4e4654000000000000000000000000000000000000000000000000008152506040518060400160405280600481526020017f484e465400000000000000000000000000000000000000000000000000000000815250816000908051906020019062000096929190620001a6565b508060019080519060200190620000af929190620001a6565b505050620000d2620000c6620000d860201b60201c565b620000e060201b60201c565b620002bb565b600033905090565b6000600760009054906101000a900473ffffffffffffffffffffffffffffffffffffffff16905081600760006101000a81548173ffffffffffffffffffffffffffffffffffffffff021916908373ffffffffffffffffffffffffffffffffffffffff1602179055508173ffffffffffffffffffffffffffffffffffffffff168173ffffffffffffffffffffffffffffffffffffffff167f8be0079c531659141344cd1fd0a4f28419497f9722a3daafe3b4186f6b6457e060405160405180910390a35050565b828054620001b49062000256565b90600052602060002090601f016020900481019282620001d8576000855562000224565b82601f10620001f357805160ff191683800117855562000224565b8280016001018555821562000224579182015b828111156200022357825182559160200191906001019062000206565b5b50905062000233919062000237565b5090565b5b808211156200025257600081600090555060010162000238565b5090565b600060028204905060018216806200026f57607f821691505b602082108114156200028657620002856200028c565b5b50919050565b7f4e487b7100000000000000000000000000000000000000000000000000000000600052602260045260246000fd5b6134da80620002cb6000396000f3fe60806040526004361061011f5760003560e01c80638d859f3e116100a0578063c87b56dd11610064578063c87b56dd146103b2578063ce847564146103ef578063e985e9c514610418578063f2fde38b14610455578063fb37e8831461047e5761011f565b80638d859f3e146102df5780638da5cb5b1461030a57806395d89b4114610335578063a22cb46514610360578063b88d4fde146103895761011f565b80633ccfd60b116100e75780633ccfd60b1461021b57806342842e0e146102255780636352211e1461024e57806370a082311461028b578063715018a6146102c85761011f565b806301ffc9a71461012457806306fdde0314610161578063081812fc1461018c578063095ea7b3146101c957806323b872dd146101f2575b600080fd5b34801561013057600080fd5b5061014b60048036038101906101469190612298565b61049a565b60405161015891906127c6565b60405180910390f35b34801561016d57600080fd5b5061017661057c565b60405161018391906127e1565b60405180910390f35b34801561019857600080fd5b506101b360048036038101906101ae919061232b565b61060e565b6040516101c0919061275f565b60405180910390f35b3480156101d557600080fd5b506101f060048036038101906101eb919061225c565b610693565b005b3480156101fe57600080fd5b5061021960048036038101906102149190612156565b6107ab565b005b61022361080b565b005b34801561023157600080fd5b5061024c60048036038101906102479190612156565b61097f565b005b34801561025a57600080fd5b506102756004803603810190610270919061232b565b61099f565b604051610282919061275f565b60405180910390f35b34801561029757600080fd5b506102b260048036038101906102ad91906120f1565b610a51565b6040516102bf9190612aa3565b60405180910390f35b3480156102d457600080fd5b506102dd610b09565b005b3480156102eb57600080fd5b506102f4610b91565b6040516103019190612aa3565b60405180910390f35b34801561031657600080fd5b5061031f610b9c565b60405161032c919061275f565b60405180910390f35b34801561034157600080fd5b5061034a610bc6565b60405161035791906127e1565b60405180910390f35b34801561036c57600080fd5b5061038760048036038101906103829190612220565b610c58565b005b34801561039557600080fd5b506103b060048036038101906103ab91906121a5565b610c6e565b005b3480156103be57600080fd5b506103d960048036038101906103d4919061232b565b610cd0565b6040516103e691906127e1565b60405180910390f35b3480156103fb57600080fd5b50610416600480360381019061041191906122ea565b610e22565b005b34801561042457600080fd5b5061043f600480360381019061043a919061211a565b610eaa565b60405161044c91906127c6565b60405180910390f35b34801561046157600080fd5b5061047c600480360381019061047791906120f1565b610f3e565b005b610498600480360381019061049391906122ea565b611036565b005b60007f80ac58cd000000000000000000000000000000000000000000000000000000007bffffffffffffffffffffffffffffffffffffffffffffffffffffffff1916827bffffffffffffffffffffffffffffffffffffffffffffffffffffffff1916148061056557507f5b5e139f000000000000000000000000000000000000000000000000000000007bffffffffffffffffffffffffffffffffffffffffffffffffffffffff1916827bffffffffffffffffffffffffffffffffffffffffffffffffffffffff1916145b8061057557506105748261108c565b5b9050919050565b60606000805461058b90612d04565b80601f01602080910402602001604051908101604052809291908181526020018280546105b790612d04565b80156106045780601f106105d957610100808354040283529160200191610604565b820191906000526020600020905b8154815290600101906020018083116105e757829003601f168201915b5050505050905090565b6000610619826110f6565b610658576040517f08c379a000000000000000000000000000000000000000000000000000000000815260040161064f906129c3565b60405180910390fd5b6004600083815260200190815260200160002060009054906101000a900473ffffffffffffffffffffffffffffffffffffffff169050919050565b600061069e8261099f565b90508073ffffffffffffffffffffffffffffffffffffffff168373ffffffffffffffffffffffffffffffffffffffff16141561070f576040517f08c379a000000000000000000000000000000000000000000000000000000000815260040161070690612a43565b60405180910390fd5b8073ffffffffffffffffffffffffffffffffffffffff1661072e611162565b73ffffffffffffffffffffffffffffffffffffffff16148061075d575061075c81610757611162565b610eaa565b5b61079c576040517f08c379a0000000000000000000000000000000000000000000000000000000008152600401610793906128e3565b60405180910390fd5b6107a6838361116a565b505050565b6107bc6107b6611162565b82611223565b6107fb576040517f08c379a00000000000000000000000000000000000000000000000000000000081526004016107f290612a83565b60405180910390fd5b610806838383611301565b505050565b610813611162565b73ffffffffffffffffffffffffffffffffffffffff16610831610b9c565b73ffffffffffffffffffffffffffffffffffffffff1614610887576040517f08c379a000000000000000000000000000000000000000000000000000000000815260040161087e906129e3565b60405180910390fd5b6000479050600081116108cf576040517f08c379a00000000000000000000000000000000000000000000000000000000081526004016108c690612983565b60405180910390fd5b60003373ffffffffffffffffffffffffffffffffffffffff16826040516108f59061274a565b60006040518083038185875af1925050503d8060008114610932576040519150601f19603f3d011682016040523d82523d6000602084013e610937565b606091505b505090508061097b576040517f08c379a000000000000000000000000000000000000000000000000000000000815260040161097290612a63565b60405180910390fd5b5050565b61099a83838360405180602001604052806000815250610c6e565b505050565b6000806002600084815260200190815260200160002060009054906101000a900473ffffffffffffffffffffffffffffffffffffffff169050600073ffffffffffffffffffffffffffffffffffffffff168173ffffffffffffffffffffffffffffffffffffffff161415610a48576040517f08c379a0000000000000000000000000000000000000000000000000000000008152600401610a3f90612923565b60405180910390fd5b80915050919050565b60008073ffffffffffffffffffffffffffffffffffffffff168273ffffffffffffffffffffffffffffffffffffffff161415610ac2576040517f08c379a0000000000000000000000000000000000000000000000000000000008152600401610ab990612903565b60405180910390fd5b600360008373ffffffffffffffffffffffffffffffffffffffff1673ffffffffffffffffffffffffffffffffffffffff168152602001908152602001600020549050919050565b610b11611162565b73ffffffffffffffffffffffffffffffffffffffff16610b2f610b9c565b73ffffffffffffffffffffffffffffffffffffffff1614610b85576040517f08c379a0000000000000000000000000000000000000000000000000000000008152600401610b7c906129e3565b60405180910390fd5b610b8f600061155d565b565b662386f26fc1000081565b6000600760009054906101000a900473ffffffffffffffffffffffffffffffffffffffff16905090565b606060018054610bd590612d04565b80601f0160208091040260200160405190810160405280929190818152602001828054610c0190612d04565b8015610c4e5780601f10610c2357610100808354040283529160200191610c4e565b820191906000526020600020905b815481529060010190602001808311610c3157829003601f168201915b5050505050905090565b610c6a610c63611162565b8383611623565b5050565b610c7f610c79611162565b83611223565b610cbe576040517f08c379a0000000000000000000000000000000000000000000000000000000008152600401610cb590612a83565b60405180910390fd5b610cca84848484611790565b50505050565b6060610cdb826110f6565b610d1a576040517f08c379a0000000000000000000000000000000000000000000000000000000008152600401610d11906129a3565b60405180910390fd5b6000600660008481526020019081526020016000208054610d3a90612d04565b80601f0160208091040260200160405190810160405280929190818152602001828054610d6690612d04565b8015610db35780601f10610d8857610100808354040283529160200191610db3565b820191906000526020600020905b815481529060010190602001808311610d9657829003601f168201915b505050505090506000610dc46117ec565b9050600081511415610dda578192505050610e1d565b600082511115610e0f578082604051602001610df7929190612726565b60405160208183030381529060405292505050610e1d565b610e1884611803565b925050505b919050565b610e2a611162565b73ffffffffffffffffffffffffffffffffffffffff16610e48610b9c565b73ffffffffffffffffffffffffffffffffffffffff1614610e9e576040517f08c379a0000000000000000000000000000000000000000000000000000000008152600401610e95906129e3565b60405180910390fd5b610ea7816118aa565b50565b6000600560008473ffffffffffffffffffffffffffffffffffffffff1673ffffffffffffffffffffffffffffffffffffffff16815260200190815260200160002060008373ffffffffffffffffffffffffffffffffffffffff1673ffffffffffffffffffffffffffffffffffffffff16815260200190815260200160002060009054906101000a900460ff16905092915050565b610f46611162565b73ffffffffffffffffffffffffffffffffffffffff16610f64610b9c565b73ffffffffffffffffffffffffffffffffffffffff1614610fba576040517f08c379a0000000000000000000000000000000000000000000000000000000008152600401610fb1906129e3565b60405180910390fd5b600073ffffffffffffffffffffffffffffffffffffffff168173ffffffffffffffffffffffffffffffffffffffff16141561102a576040517f08c379a000000000000000000000000000000000000000000000000000000000815260040161102190612823565b60405180910390fd5b6110338161155d565b50565b662386f26fc10000341015611080576040517f08c379a0000000000000000000000000000000000000000000000000000000008152600401611077906128a3565b60405180910390fd5b611089816118aa565b50565b60007f01ffc9a7000000000000000000000000000000000000000000000000000000007bffffffffffffffffffffffffffffffffffffffffffffffffffffffff1916827bffffffffffffffffffffffffffffffffffffffffffffffffffffffff1916149050919050565b60008073ffffffffffffffffffffffffffffffffffffffff166002600084815260200190815260200160002060009054906101000a900473ffffffffffffffffffffffffffffffffffffffff1673ffffffffffffffffffffffffffffffffffffffff1614159050919050565b600033905090565b816004600083815260200190815260200160002060006101000a81548173ffffffffffffffffffffffffffffffffffffffff021916908373ffffffffffffffffffffffffffffffffffffffff160217905550808273ffffffffffffffffffffffffffffffffffffffff166111dd8361099f565b73ffffffffffffffffffffffffffffffffffffffff167f8c5be1e5ebec7d5bd14f71427d1e84f3dd0314c0f7b2291e5b200ac8c7c3b92560405160405180910390a45050565b600061122e826110f6565b61126d576040517f08c379a0000000000000000000000000000000000000000000000000000000008152600401611264906128c3565b60405180910390fd5b60006112788361099f565b90508073ffffffffffffffffffffffffffffffffffffffff168473ffffffffffffffffffffffffffffffffffffffff1614806112e757508373ffffffffffffffffffffffffffffffffffffffff166112cf8461060e565b73ffffffffffffffffffffffffffffffffffffffff16145b806112f857506112f78185610eaa565b5b91505092915050565b8273ffffffffffffffffffffffffffffffffffffffff166113218261099f565b73ffffffffffffffffffffffffffffffffffffffff1614611377576040517f08c379a000000000000000000000000000000000000000000000000000000000815260040161136e90612a03565b60405180910390fd5b600073ffffffffffffffffffffffffffffffffffffffff168273ffffffffffffffffffffffffffffffffffffffff1614156113e7576040517f08c379a00000000000000000000000000000000000000000000000000000000081526004016113de90612863565b60405180910390fd5b6113f28383836118da565b6113fd60008261116a565b6001600360008573ffffffffffffffffffffffffffffffffffffffff1673ffffffffffffffffffffffffffffffffffffffff168152602001908152602001600020600082825461144d9190612c1a565b925050819055506001600360008473ffffffffffffffffffffffffffffffffffffffff1673ffffffffffffffffffffffffffffffffffffffff16815260200190815260200160002060008282546114a49190612b93565b92505081905550816002600083815260200190815260200160002060006101000a81548173ffffffffffffffffffffffffffffffffffffffff021916908373ffffffffffffffffffffffffffffffffffffffff160217905550808273ffffffffffffffffffffffffffffffffffffffff168473ffffffffffffffffffffffffffffffffffffffff167fddf252ad1be2c89b69c2b068fc378daa952ba7f163c4a11628f55a4df523b3ef60405160405180910390a4505050565b6000600760009054906101000a900473ffffffffffffffffffffffffffffffffffffffff16905081600760006101000a81548173ffffffffffffffffffffffffffffffffffffffff021916908373ffffffffffffffffffffffffffffffffffffffff1602179055508173ffffffffffffffffffffffffffffffffffffffff168173ffffffffffffffffffffffffffffffffffffffff167f8be0079c531659141344cd1fd0a4f28419497f9722a3daafe3b4186f6b6457e060405160405180910390a35050565b8173ffffffffffffffffffffffffffffffffffffffff168373ffffffffffffffffffffffffffffffffffffffff161415611692576040517f08c379a000000000000000000000000000000000000000000000000000000000815260040161168990612883565b60405180910390fd5b80600560008573ffffffffffffffffffffffffffffffffffffffff1673ffffffffffffffffffffffffffffffffffffffff16815260200190815260200160002060008473ffffffffffffffffffffffffffffffffffffffff1673ffffffffffffffffffffffffffffffffffffffff16815260200190815260200160002060006101000a81548160ff0219169083151502179055508173ffffffffffffffffffffffffffffffffffffffff168373ffffffffffffffffffffffffffffffffffffffff167f17307eab39ab6107e8899845ad3d59bd9653f200f220920489ca2b5937696c318360405161178391906127c6565b60405180910390a3505050565b61179b848484611301565b6117a7848484846118df565b6117e6576040517f08c379a00000000000000000000000000000000000000000000000000000000081526004016117dd90612803565b60405180910390fd5b50505050565b606060405180602001604052806000815250905090565b606061180e826110f6565b61184d576040517f08c379a000000000000000000000000000000000000000000000000000000000815260040161184490612a23565b60405180910390fd5b60006118576117ec565b9050600081511161187757604051806020016040528060008152506118a2565b8061188184611a76565b604051602001611892929190612726565b6040516020818303038152906040525b915050919050565b60006118b66008611c23565b90506118c23382611c31565b6118cc8183611c4f565b6118d66008611cc3565b5050565b505050565b60006119008473ffffffffffffffffffffffffffffffffffffffff16611cd9565b15611a69578373ffffffffffffffffffffffffffffffffffffffff1663150b7a02611929611162565b8786866040518563ffffffff1660e01b815260040161194b949392919061277a565b602060405180830381600087803b15801561196557600080fd5b505af192505050801561199657506040513d601f19601f8201168201806040525081019061199391906122c1565b60015b611a19573d80600081146119c6576040519150601f19603f3d011682016040523d82523d6000602084013e6119cb565b606091505b50600081511415611a11576040517f08c379a0000000000000000000000000000000000000000000000000000000008152600401611a0890612803565b60405180910390fd5b805181602001fd5b63150b7a0260e01b7bffffffffffffffffffffffffffffffffffffffffffffffffffffffff1916817bffffffffffffffffffffffffffffffffffffffffffffffffffffffff191614915050611a6e565b600190505b949350505050565b60606000821415611abe576040518060400160405280600181526020017f30000000000000000000000000000000000000000000000000000000000000008152509050611c1e565b600082905060005b60008214611af0578080611ad990612d67565b915050600a82611ae99190612be9565b9150611ac6565b60008167ffffffffffffffff811115611b32577f4e487b7100000000000000000000000000000000000000000000000000000000600052604160045260246000fd5b6040519080825280601f01601f191660200182016040528015611b645781602001600182028036833780820191505090505b5090505b60008514611c1757600182611b7d9190612c1a565b9150600a85611b8c9190612db0565b6030611b989190612b93565b60f81b818381518110611bd4577f4e487b7100000000000000000000000000000000000000000000000000000000600052603260045260246000fd5b60200101907effffffffffffffffffffffffffffffffffffffffffffffffffffffffffffff1916908160001a905350600a85611c109190612be9565b9450611b68565b8093505050505b919050565b600081600001549050919050565b611c4b828260405180602001604052806000815250611cec565b5050565b611c58826110f6565b611c97576040517f08c379a0000000000000000000000000000000000000000000000000000000008152600401611c8e90612943565b60405180910390fd5b80600660008481526020019081526020016000209080519060200190611cbe929190611f15565b505050565b6001816000016000828254019250508190555050565b600080823b905060008111915050919050565b611cf68383611d47565b611d0360008484846118df565b611d42576040517f08c379a0000000000000000000000000000000000000000000000000000000008152600401611d3990612803565b60405180910390fd5b505050565b600073ffffffffffffffffffffffffffffffffffffffff168273ffffffffffffffffffffffffffffffffffffffff161415611db7576040517f08c379a0000000000000000000000000000000000000000000000000000000008152600401611dae90612963565b60405180910390fd5b611dc0816110f6565b15611e00576040517f08c379a0000000000000000000000000000000000000000000000000000000008152600401611df790612843565b60405180910390fd5b611e0c600083836118da565b6001600360008473ffffffffffffffffffffffffffffffffffffffff1673ffffffffffffffffffffffffffffffffffffffff1681526020019081526020016000206000828254611e5c9190612b93565b92505081905550816002600083815260200190815260200160002060006101000a81548173ffffffffffffffffffffffffffffffffffffffff021916908373ffffffffffffffffffffffffffffffffffffffff160217905550808273ffffffffffffffffffffffffffffffffffffffff16600073ffffffffffffffffffffffffffffffffffffffff167fddf252ad1be2c89b69c2b068fc378daa952ba7f163c4a11628f55a4df523b3ef60405160405180910390a45050565b828054611f2190612d04565b90600052602060002090601f016020900481019282611f435760008555611f8a565b82601f10611f5c57805160ff1916838001178555611f8a565b82800160010185558215611f8a579182015b82811115611f89578251825591602001919060010190611f6e565b5b509050611f979190611f9b565b5090565b5b80821115611fb4576000816000905550600101611f9c565b5090565b6000611fcb611fc684612ae3565b612abe565b905082815260208101848484011115611fe357600080fd5b611fee848285612cc2565b509392505050565b600061200961200484612b14565b612abe565b90508281526020810184848401111561202157600080fd5b61202c848285612cc2565b509392505050565b60008135905061204381613448565b92915050565b6000813590506120588161345f565b92915050565b60008135905061206d81613476565b92915050565b60008151905061208281613476565b92915050565b600082601f83011261209957600080fd5b81356120a9848260208601611fb8565b91505092915050565b600082601f8301126120c357600080fd5b81356120d3848260208601611ff6565b91505092915050565b6000813590506120eb8161348d565b92915050565b60006020828403121561210357600080fd5b600061211184828501612034565b91505092915050565b6000806040838503121561212d57600080fd5b600061213b85828601612034565b925050602061214c85828601612034565b9150509250929050565b60008060006060848603121561216b57600080fd5b600061217986828701612034565b935050602061218a86828701612034565b925050604061219b868287016120dc565b9150509250925092565b600080600080608085870312156121bb57600080fd5b60006121c987828801612034565b94505060206121da87828801612034565b93505060406121eb878288016120dc565b925050606085013567ffffffffffffffff81111561220857600080fd5b61221487828801612088565b91505092959194509250565b6000806040838503121561223357600080fd5b600061224185828601612034565b925050602061225285828601612049565b9150509250929050565b6000806040838503121561226f57600080fd5b600061227d85828601612034565b925050602061228e858286016120dc565b9150509250929050565b6000602082840312156122aa57600080fd5b60006122b88482850161205e565b91505092915050565b6000602082840312156122d357600080fd5b60006122e184828501612073565b91505092915050565b6000602082840312156122fc57600080fd5b600082013567ffffffffffffffff81111561231657600080fd5b612322848285016120b2565b91505092915050565b60006020828403121561233d57600080fd5b600061234b848285016120dc565b91505092915050565b61235d81612c4e565b82525050565b61236c81612c60565b82525050565b600061237d82612b45565b6123878185612b5b565b9350612397818560208601612cd1565b6123a081612e9d565b840191505092915050565b60006123b682612b50565b6123c08185612b77565b93506123d0818560208601612cd1565b6123d981612e9d565b840191505092915050565b60006123ef82612b50565b6123f98185612b88565b9350612409818560208601612cd1565b80840191505092915050565b6000612422603283612b77565b915061242d82612eae565b604082019050919050565b6000612445602683612b77565b915061245082612efd565b604082019050919050565b6000612468601c83612b77565b915061247382612f4c565b602082019050919050565b600061248b602483612b77565b915061249682612f75565b604082019050919050565b60006124ae601983612b77565b91506124b982612fc4565b602082019050919050565b60006124d1602283612b77565b91506124dc82612fed565b604082019050919050565b60006124f4602c83612b77565b91506124ff8261303c565b604082019050919050565b6000612517603883612b77565b91506125228261308b565b604082019050919050565b600061253a602a83612b77565b9150612545826130da565b604082019050919050565b600061255d602983612b77565b915061256882613129565b604082019050919050565b6000612580602e83612b77565b915061258b82613178565b604082019050919050565b60006125a3602083612b77565b91506125ae826131c7565b602082019050919050565b60006125c6601983612b77565b91506125d1826131f0565b602082019050919050565b60006125e9603183612b77565b91506125f482613219565b604082019050919050565b600061260c602c83612b77565b915061261782613268565b604082019050919050565b600061262f602083612b77565b915061263a826132b7565b602082019050919050565b6000612652602983612b77565b915061265d826132e0565b604082019050919050565b6000612675602f83612b77565b91506126808261332f565b604082019050919050565b6000612698602183612b77565b91506126a38261337e565b604082019050919050565b60006126bb600083612b6c565b91506126c6826133cd565b600082019050919050565b60006126de601083612b77565b91506126e9826133d0565b602082019050919050565b6000612701603183612b77565b915061270c826133f9565b604082019050919050565b61272081612cb8565b82525050565b600061273282856123e4565b915061273e82846123e4565b91508190509392505050565b6000612755826126ae565b9150819050919050565b60006020820190506127746000830184612354565b92915050565b600060808201905061278f6000830187612354565b61279c6020830186612354565b6127a96040830185612717565b81810360608301526127bb8184612372565b905095945050505050565b60006020820190506127db6000830184612363565b92915050565b600060208201905081810360008301526127fb81846123ab565b905092915050565b6000602082019050818103600083015261281c81612415565b9050919050565b6000602082019050818103600083015261283c81612438565b9050919050565b6000602082019050818103600083015261285c8161245b565b9050919050565b6000602082019050818103600083015261287c8161247e565b9050919050565b6000602082019050818103600083015261289c816124a1565b9050919050565b600060208201905081810360008301526128bc816124c4565b9050919050565b600060208201905081810360008301526128dc816124e7565b9050919050565b600060208201905081810360008301526128fc8161250a565b9050919050565b6000602082019050818103600083015261291c8161252d565b9050919050565b6000602082019050818103600083015261293c81612550565b9050919050565b6000602082019050818103600083015261295c81612573565b9050919050565b6000602082019050818103600083015261297c81612596565b9050919050565b6000602082019050818103600083015261299c816125b9565b9050919050565b600060208201905081810360008301526129bc816125dc565b9050919050565b600060208201905081810360008301526129dc816125ff565b9050919050565b600060208201905081810360008301526129fc81612622565b9050919050565b60006020820190508181036000830152612a1c81612645565b9050919050565b60006020820190508181036000830152612a3c81612668565b9050919050565b60006020820190508181036000830152612a5c8161268b565b9050919050565b60006020820190508181036000830152612a7c816126d1565b9050919050565b60006020820190508181036000830152612a9c816126f4565b9050919050565b6000602082019050612ab86000830184612717565b92915050565b6000612ac8612ad9565b9050612ad48282612d36565b919050565b6000604051905090565b600067ffffffffffffffff821115612afe57612afd612e6e565b5b612b0782612e9d565b9050602081019050919050565b600067ffffffffffffffff821115612b2f57612b2e612e6e565b5b612b3882612e9d565b9050602081019050919050565b600081519050919050565b600081519050919050565b600082825260208201905092915050565b600081905092915050565b600082825260208201905092915050565b600081905092915050565b6000612b9e82612cb8565b9150612ba983612cb8565b9250827fffffffffffffffffffffffffffffffffffffffffffffffffffffffffffffffff03821115612bde57612bdd612de1565b5b828201905092915050565b6000612bf482612cb8565b9150612bff83612cb8565b925082612c0f57612c0e612e10565b5b828204905092915050565b6000612c2582612cb8565b9150612c3083612cb8565b925082821015612c4357612c42612de1565b5b828203905092915050565b6000612c5982612c98565b9050919050565b60008115159050919050565b60007fffffffff0000000000000000000000000000000000000000000000000000000082169050919050565b600073ffffffffffffffffffffffffffffffffffffffff82169050919050565b6000819050919050565b82818337600083830152505050565b60005b83811015612cef578082015181840152602081019050612cd4565b83811115612cfe576000848401525b50505050565b60006002820490506001821680612d1c57607f821691505b60208210811415612d3057612d2f612e3f565b5b50919050565b612d3f82612e9d565b810181811067ffffffffffffffff82111715612d5e57612d5d612e6e565b5b80604052505050565b6000612d7282612cb8565b91507fffffffffffffffffffffffffffffffffffffffffffffffffffffffffffffffff821415612da557612da4612de1565b5b600182019050919050565b6000612dbb82612cb8565b9150612dc683612cb8565b925082612dd657612dd5612e10565b5b828206905092915050565b7f4e487b7100000000000000000000000000000000000000000000000000000000600052601160045260246000fd5b7f4e487b7100000000000000000000000000000000000000000000000000000000600052601260045260246000fd5b7f4e487b7100000000000000000000000000000000000000000000000000000000600052602260045260246000fd5b7f4e487b7100000000000000000000000000000000000000000000000000000000600052604160045260246000fd5b6000601f19601f8301169050919050565b7f4552433732313a207472616e7366657220746f206e6f6e20455243373231526560008201527f63656976657220696d706c656d656e7465720000000000000000000000000000602082015250565b7f4f776e61626c653a206e6577206f776e657220697320746865207a65726f206160008201527f6464726573730000000000000000000000000000000000000000000000000000602082015250565b7f4552433732313a20746f6b656e20616c7265616479206d696e74656400000000600082015250565b7f4552433732313a207472616e7366657220746f20746865207a65726f2061646460008201527f7265737300000000000000000000000000000000000000000000000000000000602082015250565b7f4552433732313a20617070726f766520746f2063616c6c657200000000000000600082015250565b7f4e6f7420656e6f75676820657468657220746f207075726368617365204e465460008201527f732e000000000000000000000000000000000000000000000000000000000000602082015250565b7f4552433732313a206f70657261746f7220717565727920666f72206e6f6e657860008201527f697374656e7420746f6b656e0000000000000000000000000000000000000000602082015250565b7f4552433732313a20617070726f76652063616c6c6572206973206e6f74206f7760008201527f6e6572206e6f7220617070726f76656420666f7220616c6c0000000000000000602082015250565b7f4552433732313a2062616c616e636520717565727920666f7220746865207a6560008201527f726f206164647265737300000000000000000000000000000000000000000000602082015250565b7f4552433732313a206f776e657220717565727920666f72206e6f6e657869737460008201527f656e7420746f6b656e0000000000000000000000000000000000000000000000602082015250565b7f45524337323155524953746f726167653a2055524920736574206f66206e6f6e60008201527f6578697374656e7420746f6b656e000000000000000000000000000000000000602082015250565b7f4552433732313a206d696e7420746f20746865207a65726f2061646472657373600082015250565b7f4e6f206574686572206c65667420746f20776974686472617700000000000000600082015250565b7f45524337323155524953746f726167653a2055524920717565727920666f722060008201527f6e6f6e6578697374656e7420746f6b656e000000000000000000000000000000602082015250565b7f4552433732313a20617070726f76656420717565727920666f72206e6f6e657860008201527f697374656e7420746f6b656e0000000000000000000000000000000000000000602082015250565b7f4f776e61626c653a2063616c6c6572206973206e6f7420746865206f776e6572600082015250565b7f4552433732313a207472616e73666572206f6620746f6b656e2074686174206960008201527f73206e6f74206f776e0000000000000000000000000000000000000000000000602082015250565b7f4552433732314d657461646174613a2055524920717565727920666f72206e6f60008201527f6e6578697374656e7420746f6b656e0000000000000000000000000000000000602082015250565b7f4552433732313a20617070726f76616c20746f2063757272656e74206f776e6560008201527f7200000000000000000000000000000000000000000000000000000000000000602082015250565b50565b7f5472616e73666572206661696c65642e00000000000000000000000000000000600082015250565b7f4552433732313a207472616e736665722063616c6c6572206973206e6f74206f60008201527f776e6572206e6f7220617070726f766564000000000000000000000000000000602082015250565b61345181612c4e565b811461345c57600080fd5b50565b61346881612c60565b811461347357600080fd5b50565b61347f81612c6c565b811461348a57600080fd5b50565b61349681612cb8565b81146134a157600080fd5b5056fea26469706673582212202b3aac755dfef766f5f45d426e74bc86044583a695fd782f9c3f12402484302e64736f6c63430008040033",
  "linkReferences": {},
  "deployedLinkReferences": {}
}