{
  "_format": "hh-sol-artifact-1",
  "contractName": "HoloNFT",
  "sourceName": "contracts/HoloNFT.sol",
  "abi": [
    {
      "inputs": [
        {
          "internalType": "string",
          "name": "baseURI",
          "type": "string"
        }
      ],
      "stateMutability": "nonpayable",
      "type": "constructor"
    },
    {
      "anonymous": false,
      "inputs": [
        {
          "indexed": true,
          "internalType": "address",
          "name": "owner",
          "type": "address"
        },
        {
          "indexed": true,
          "internalType": "address",
          "name": "approved",
          "type": "address"
        },
        {
          "indexed": true,
          "internalType": "uint256",
          "name": "tokenId",
          "type": "uint256"
        }
      ],
      "name": "Approval",
      "type": "event"
    },
    {
      "anonymous": false,
      "inputs": [
        {
          "indexed": true,
          "internalType": "address",
          "name": "owner",
          "type": "address"
        },
        {
          "indexed": true,
          "internalType": "address",
          "name": "operator",
          "type": "address"
        },
        {
          "indexed": false,
          "internalType": "bool",
          "name": "approved",
          "type": "bool"
        }
      ],
      "name": "ApprovalForAll",
      "type": "event"
    },
    {
      "anonymous": false,
      "inputs": [
        {
          "indexed": true,
          "internalType": "address",
          "name": "previousOwner",
          "type": "address"
        },
        {
          "indexed": true,
          "internalType": "address",
          "name": "newOwner",
          "type": "address"
        }
      ],
      "name": "OwnershipTransferred",
      "type": "event"
    },
    {
      "anonymous": false,
      "inputs": [
        {
          "indexed": true,
          "internalType": "address",
          "name": "from",
          "type": "address"
        },
        {
          "indexed": true,
          "internalType": "address",
          "name": "to",
          "type": "address"
        },
        {
          "indexed": true,
          "internalType": "uint256",
          "name": "tokenId",
          "type": "uint256"
        }
      ],
      "name": "Transfer",
      "type": "event"
    },
    {
      "inputs": [],
      "name": "PRICE",
      "outputs": [
        {
          "internalType": "uint256",
          "name": "",
          "type": "uint256"
        }
      ],
      "stateMutability": "view",
      "type": "function"
    },
    {
      "inputs": [
        {
          "internalType": "address",
          "name": "to",
          "type": "address"
        },
        {
          "internalType": "uint256",
          "name": "tokenId",
          "type": "uint256"
        }
      ],
      "name": "approve",
      "outputs": [],
      "stateMutability": "nonpayable",
      "type": "function"
    },
    {
      "inputs": [
        {
          "internalType": "address",
          "name": "owner",
          "type": "address"
        }
      ],
      "name": "balanceOf",
      "outputs": [
        {
          "internalType": "uint256",
          "name": "",
          "type": "uint256"
        }
      ],
      "stateMutability": "view",
      "type": "function"
    },
    {
      "inputs": [],
      "name": "baseTokenURI",
      "outputs": [
        {
          "internalType": "string",
          "name": "",
          "type": "string"
        }
      ],
      "stateMutability": "view",
      "type": "function"
    },
    {
      "inputs": [
        {
          "internalType": "uint256",
          "name": "tokenId",
          "type": "uint256"
        }
      ],
      "name": "getApproved",
      "outputs": [
        {
          "internalType": "address",
          "name": "",
          "type": "address"
        }
      ],
      "stateMutability": "view",
      "type": "function"
    },
    {
      "inputs": [
        {
          "internalType": "address",
          "name": "owner",
          "type": "address"
        },
        {
          "internalType": "address",
          "name": "operator",
          "type": "address"
        }
      ],
      "name": "isApprovedForAll",
      "outputs": [
        {
          "internalType": "bool",
          "name": "",
          "type": "bool"
        }
      ],
      "stateMutability": "view",
      "type": "function"
    },
    {
      "inputs": [],
      "name": "mintNFT",
      "outputs": [],
      "stateMutability": "payable",
      "type": "function"
    },
    {
      "inputs": [],
      "name": "name",
      "outputs": [
        {
          "internalType": "string",
          "name": "",
          "type": "string"
        }
      ],
      "stateMutability": "view",
      "type": "function"
    },
    {
      "inputs": [],
      "name": "owner",
      "outputs": [
        {
          "internalType": "address",
          "name": "",
          "type": "address"
        }
      ],
      "stateMutability": "view",
      "type": "function"
    },
    {
      "inputs": [
        {
          "internalType": "uint256",
          "name": "tokenId",
          "type": "uint256"
        }
      ],
      "name": "ownerOf",
      "outputs": [
        {
          "internalType": "address",
          "name": "",
          "type": "address"
        }
      ],
      "stateMutability": "view",
      "type": "function"
    },
    {
      "inputs": [],
      "name": "renounceOwnership",
      "outputs": [],
      "stateMutability": "nonpayable",
      "type": "function"
    },
    {
      "inputs": [],
      "name": "reserveNFTs",
      "outputs": [],
      "stateMutability": "nonpayable",
      "type": "function"
    },
    {
      "inputs": [
        {
          "internalType": "address",
          "name": "from",
          "type": "address"
        },
        {
          "internalType": "address",
          "name": "to",
          "type": "address"
        },
        {
          "internalType": "uint256",
          "name": "tokenId",
          "type": "uint256"
        }
      ],
      "name": "safeTransferFrom",
      "outputs": [],
      "stateMutability": "nonpayable",
      "type": "function"
    },
    {
      "inputs": [
        {
          "internalType": "address",
          "name": "from",
          "type": "address"
        },
        {
          "internalType": "address",
          "name": "to",
          "type": "address"
        },
        {
          "internalType": "uint256",
          "name": "tokenId",
          "type": "uint256"
        },
        {
          "internalType": "bytes",
          "name": "_data",
          "type": "bytes"
        }
      ],
      "name": "safeTransferFrom",
      "outputs": [],
      "stateMutability": "nonpayable",
      "type": "function"
    },
    {
      "inputs": [
        {
          "internalType": "address",
          "name": "operator",
          "type": "address"
        },
        {
          "internalType": "bool",
          "name": "approved",
          "type": "bool"
        }
      ],
      "name": "setApprovalForAll",
      "outputs": [],
      "stateMutability": "nonpayable",
      "type": "function"
    },
    {
      "inputs": [
        {
          "internalType": "string",
          "name": "_baseTokenURI",
          "type": "string"
        }
      ],
      "name": "setBaseURI",
      "outputs": [],
      "stateMutability": "nonpayable",
      "type": "function"
    },
    {
      "inputs": [
        {
          "internalType": "bytes4",
          "name": "interfaceId",
          "type": "bytes4"
        }
      ],
      "name": "supportsInterface",
      "outputs": [
        {
          "internalType": "bool",
          "name": "",
          "type": "bool"
        }
      ],
      "stateMutability": "view",
      "type": "function"
    },
    {
      "inputs": [],
      "name": "symbol",
      "outputs": [
        {
          "internalType": "string",
          "name": "",
          "type": "string"
        }
      ],
      "stateMutability": "view",
      "type": "function"
    },
    {
      "inputs": [
        {
          "internalType": "uint256",
          "name": "index",
          "type": "uint256"
        }
      ],
      "name": "tokenByIndex",
      "outputs": [
        {
          "internalType": "uint256",
          "name": "",
          "type": "uint256"
        }
      ],
      "stateMutability": "view",
      "type": "function"
    },
    {
      "inputs": [
        {
          "internalType": "address",
          "name": "owner",
          "type": "address"
        },
        {
          "internalType": "uint256",
          "name": "index",
          "type": "uint256"
        }
      ],
      "name": "tokenOfOwnerByIndex",
      "outputs": [
        {
          "internalType": "uint256",
          "name": "",
          "type": "uint256"
        }
      ],
      "stateMutability": "view",
      "type": "function"
    },
    {
      "inputs": [
        {
          "internalType": "uint256",
          "name": "tokenId",
          "type": "uint256"
        }
      ],
      "name": "tokenURI",
      "outputs": [
        {
          "internalType": "string",
          "name": "",
          "type": "string"
        }
      ],
      "stateMutability": "view",
      "type": "function"
    },
    {
      "inputs": [
        {
          "internalType": "address",
          "name": "_owner",
          "type": "address"
        }
      ],
      "name": "tokensOfOwner",
      "outputs": [
        {
          "internalType": "uint256[]",
          "name": "",
          "type": "uint256[]"
        }
      ],
      "stateMutability": "view",
      "type": "function"
    },
    {
      "inputs": [],
      "name": "totalSupply",
      "outputs": [
        {
          "internalType": "uint256",
          "name": "",
          "type": "uint256"
        }
      ],
      "stateMutability": "view",
      "type": "function"
    },
    {
      "inputs": [
        {
          "internalType": "address",
          "name": "from",
          "type": "address"
        },
        {
          "internalType": "address",
          "name": "to",
          "type": "address"
        },
        {
          "internalType": "uint256",
          "name": "tokenId",
          "type": "uint256"
        }
      ],
      "name": "transferFrom",
      "outputs": [],
      "stateMutability": "nonpayable",
      "type": "function"
    },
    {
      "inputs": [
        {
          "internalType": "address",
          "name": "newOwner",
          "type": "address"
        }
      ],
      "name": "transferOwnership",
      "outputs": [],
      "stateMutability": "nonpayable",
      "type": "function"
    },
    {
      "inputs": [],
      "name": "withdraw",
      "outputs": [],
      "stateMutability": "payable",
      "type": "function"
    }
  ],
  "bytecode": "0x60806040523480156200001157600080fd5b5060405162004301380380620043018339818101604052810190620000379190620003d4565b6040518060400160405280600781526020017f486f6c6f4e4654000000000000000000000000000000000000000000000000008152506040518060400160405280600481526020017f484e4654000000000000000000000000000000000000000000000000000000008152508160009080519060200190620000bb929190620002b2565b508060019080519060200190620000d4929190620002b2565b505050620000f7620000eb6200010f60201b60201c565b6200011760201b60201c565b6200010881620001dd60201b60201c565b50620005bf565b600033905090565b6000600a60009054906101000a900473ffffffffffffffffffffffffffffffffffffffff16905081600a60006101000a81548173ffffffffffffffffffffffffffffffffffffffff021916908373ffffffffffffffffffffffffffffffffffffffff1602179055508173ffffffffffffffffffffffffffffffffffffffff168173ffffffffffffffffffffffffffffffffffffffff167f8be0079c531659141344cd1fd0a4f28419497f9722a3daafe3b4186f6b6457e060405160405180910390a35050565b620001ed6200010f60201b60201c565b73ffffffffffffffffffffffffffffffffffffffff16620002136200028860201b60201c565b73ffffffffffffffffffffffffffffffffffffffff16146200026c576040517f08c379a000000000000000000000000000000000000000000000000000000000815260040162000263906200045b565b60405180910390fd5b80600c908051906020019062000284929190620002b2565b5050565b6000600a60009054906101000a900473ffffffffffffffffffffffffffffffffffffffff16905090565b828054620002c0906200052b565b90600052602060002090601f016020900481019282620002e4576000855562000330565b82601f10620002ff57805160ff191683800117855562000330565b8280016001018555821562000330579182015b828111156200032f57825182559160200191906001019062000312565b5b5090506200033f919062000343565b5090565b5b808211156200035e57600081600090555060010162000344565b5090565b6000620003796200037384620004b1565b6200047d565b9050828152602081018484840111156200039257600080fd5b6200039f848285620004f5565b509392505050565b600082601f830112620003b957600080fd5b8151620003cb84826020860162000362565b91505092915050565b600060208284031215620003e757600080fd5b600082015167ffffffffffffffff8111156200040257600080fd5b6200041084828501620003a7565b91505092915050565b600062000428602083620004e4565b91507f4f776e61626c653a2063616c6c6572206973206e6f7420746865206f776e65726000830152602082019050919050565b60006020820190508181036000830152620004768162000419565b9050919050565b6000604051905081810181811067ffffffffffffffff82111715620004a757620004a662000590565b5b8060405250919050565b600067ffffffffffffffff821115620004cf57620004ce62000590565b5b601f19601f8301169050602081019050919050565b600082825260208201905092915050565b60005b8381101562000515578082015181840152602081019050620004f8565b8381111562000525576000848401525b50505050565b600060028204905060018216806200054457607f821691505b602082108114156200055b576200055a62000561565b5b50919050565b7f4e487b7100000000000000000000000000000000000000000000000000000000600052602260045260246000fd5b7f4e487b7100000000000000000000000000000000000000000000000000000000600052604160045260246000fd5b613d3280620005cf6000396000f3fe6080604052600436106101815760003560e01c80636352211e116100d157806395d89b411161008a578063c87b56dd11610064578063c87b56dd14610540578063d547cfb71461057d578063e985e9c5146105a8578063f2fde38b146105e557610181565b806395d89b41146104c3578063a22cb465146104ee578063b88d4fde1461051757610181565b80636352211e1461039f57806370a08231146103dc578063715018a6146104195780638462151c146104305780638d859f3e1461046d5780638da5cb5b1461049857610181565b806318160ddd1161013e5780633ccfd60b116101185780633ccfd60b1461030657806342842e0e146103105780634f6ccce71461033957806355f804b31461037657610181565b806318160ddd1461027557806323b872dd146102a05780632f745c59146102c957610181565b806301ffc9a71461018657806306fdde03146101c3578063081812fc146101ee578063095ea7b31461022b578063144100c71461025457806314f710fe1461026b575b600080fd5b34801561019257600080fd5b506101ad60048036038101906101a89190612b3f565b61060e565b6040516101ba91906135a6565b60405180910390f35b3480156101cf57600080fd5b506101d8610688565b6040516101e591906135c1565b60405180910390f35b3480156101fa57600080fd5b5061021560048036038101906102109190612bd2565b61071a565b604051610222919061351d565b60405180910390f35b34801561023757600080fd5b50610252600480360381019061024d9190612b03565b61079f565b005b34801561026057600080fd5b506102696108b7565b005b61027361095d565b005b34801561028157600080fd5b5061028a6109b1565b6040516102979190613883565b60405180910390f35b3480156102ac57600080fd5b506102c760048036038101906102c291906129fd565b6109be565b005b3480156102d557600080fd5b506102f060048036038101906102eb9190612b03565b610a1e565b6040516102fd9190613883565b60405180910390f35b61030e610ac3565b005b34801561031c57600080fd5b50610337600480360381019061033291906129fd565b610c37565b005b34801561034557600080fd5b50610360600480360381019061035b9190612bd2565b610c57565b60405161036d9190613883565b60405180910390f35b34801561038257600080fd5b5061039d60048036038101906103989190612b91565b610cee565b005b3480156103ab57600080fd5b506103c660048036038101906103c19190612bd2565b610d84565b6040516103d3919061351d565b60405180910390f35b3480156103e857600080fd5b5061040360048036038101906103fe9190612998565b610e36565b6040516104109190613883565b60405180910390f35b34801561042557600080fd5b5061042e610eee565b005b34801561043c57600080fd5b5061045760048036038101906104529190612998565b610f76565b6040516104649190613584565b60405180910390f35b34801561047957600080fd5b50610482611070565b60405161048f9190613883565b60405180910390f35b3480156104a457600080fd5b506104ad61107b565b6040516104ba919061351d565b60405180910390f35b3480156104cf57600080fd5b506104d86110a5565b6040516104e591906135c1565b60405180910390f35b3480156104fa57600080fd5b5061051560048036038101906105109190612ac7565b611137565b005b34801561052357600080fd5b5061053e60048036038101906105399190612a4c565b61114d565b005b34801561054c57600080fd5b5061056760048036038101906105629190612bd2565b6111af565b60405161057491906135c1565b60405180910390f35b34801561058957600080fd5b50610592611256565b60405161059f91906135c1565b60405180910390f35b3480156105b457600080fd5b506105cf60048036038101906105ca91906129c1565b6112e4565b6040516105dc91906135a6565b60405180910390f35b3480156105f157600080fd5b5061060c60048036038101906106079190612998565b611378565b005b60007f780e9d63000000000000000000000000000000000000000000000000000000007bffffffffffffffffffffffffffffffffffffffffffffffffffffffff1916827bffffffffffffffffffffffffffffffffffffffffffffffffffffffff19161480610681575061068082611470565b5b9050919050565b60606000805461069790613b27565b80601f01602080910402602001604051908101604052809291908181526020018280546106c390613b27565b80156107105780601f106106e557610100808354040283529160200191610710565b820191906000526020600020905b8154815290600101906020018083116106f357829003601f168201915b5050505050905090565b600061072582611552565b610764576040517f08c379a000000000000000000000000000000000000000000000000000000000815260040161075b90613783565b60405180910390fd5b6004600083815260200190815260200160002060009054906101000a900473ffffffffffffffffffffffffffffffffffffffff169050919050565b60006107aa82610d84565b90508073ffffffffffffffffffffffffffffffffffffffff168373ffffffffffffffffffffffffffffffffffffffff16141561081b576040517f08c379a000000000000000000000000000000000000000000000000000000000815260040161081290613803565b60405180910390fd5b8073ffffffffffffffffffffffffffffffffffffffff1661083a6115be565b73ffffffffffffffffffffffffffffffffffffffff1614806108695750610868816108636115be565b6112e4565b5b6108a8576040517f08c379a000000000000000000000000000000000000000000000000000000000815260040161089f906136e3565b60405180910390fd5b6108b283836115c6565b505050565b6108bf6115be565b73ffffffffffffffffffffffffffffffffffffffff166108dd61107b565b73ffffffffffffffffffffffffffffffffffffffff1614610933576040517f08c379a000000000000000000000000000000000000000000000000000000000815260040161092a906137a3565b60405180910390fd5b60005b600a81101561095a5761094761167f565b808061095290613b59565b915050610936565b50565b662386f26fc100003410156109a7576040517f08c379a000000000000000000000000000000000000000000000000000000000815260040161099e906136a3565b60405180910390fd5b6109af61167f565b565b6000600880549050905090565b6109cf6109c96115be565b826116a4565b610a0e576040517f08c379a0000000000000000000000000000000000000000000000000000000008152600401610a0590613843565b60405180910390fd5b610a19838383611782565b505050565b6000610a2983610e36565b8210610a6a576040517f08c379a0000000000000000000000000000000000000000000000000000000008152600401610a61906135e3565b60405180910390fd5b600660008473ffffffffffffffffffffffffffffffffffffffff1673ffffffffffffffffffffffffffffffffffffffff168152602001908152602001600020600083815260200190815260200160002054905092915050565b610acb6115be565b73ffffffffffffffffffffffffffffffffffffffff16610ae961107b565b73ffffffffffffffffffffffffffffffffffffffff1614610b3f576040517f08c379a0000000000000000000000000000000000000000000000000000000008152600401610b36906137a3565b60405180910390fd5b600047905060008111610b87576040517f08c379a0000000000000000000000000000000000000000000000000000000008152600401610b7e90613763565b60405180910390fd5b60003373ffffffffffffffffffffffffffffffffffffffff1682604051610bad90613508565b60006040518083038185875af1925050503d8060008114610bea576040519150601f19603f3d011682016040523d82523d6000602084013e610bef565b606091505b5050905080610c33576040517f08c379a0000000000000000000000000000000000000000000000000000000008152600401610c2a90613823565b60405180910390fd5b5050565b610c528383836040518060200160405280600081525061114d565b505050565b6000610c616109b1565b8210610ca2576040517f08c379a0000000000000000000000000000000000000000000000000000000008152600401610c9990613863565b60405180910390fd5b60088281548110610cdc577f4e487b7100000000000000000000000000000000000000000000000000000000600052603260045260246000fd5b90600052602060002001549050919050565b610cf66115be565b73ffffffffffffffffffffffffffffffffffffffff16610d1461107b565b73ffffffffffffffffffffffffffffffffffffffff1614610d6a576040517f08c379a0000000000000000000000000000000000000000000000000000000008152600401610d61906137a3565b60405180910390fd5b80600c9080519060200190610d809291906127bc565b5050565b6000806002600084815260200190815260200160002060009054906101000a900473ffffffffffffffffffffffffffffffffffffffff169050600073ffffffffffffffffffffffffffffffffffffffff168173ffffffffffffffffffffffffffffffffffffffff161415610e2d576040517f08c379a0000000000000000000000000000000000000000000000000000000008152600401610e2490613723565b60405180910390fd5b80915050919050565b60008073ffffffffffffffffffffffffffffffffffffffff168273ffffffffffffffffffffffffffffffffffffffff161415610ea7576040517f08c379a0000000000000000000000000000000000000000000000000000000008152600401610e9e90613703565b60405180910390fd5b600360008373ffffffffffffffffffffffffffffffffffffffff1673ffffffffffffffffffffffffffffffffffffffff168152602001908152602001600020549050919050565b610ef66115be565b73ffffffffffffffffffffffffffffffffffffffff16610f1461107b565b73ffffffffffffffffffffffffffffffffffffffff1614610f6a576040517f08c379a0000000000000000000000000000000000000000000000000000000008152600401610f61906137a3565b60405180910390fd5b610f7460006119de565b565b60606000610f8383610e36565b905060008167ffffffffffffffff811115610fc7577f4e487b7100000000000000000000000000000000000000000000000000000000600052604160045260246000fd5b604051908082528060200260200182016040528015610ff55781602001602082028036833780820191505090505b50905060005b828110156110655761100d8582610a1e565b828281518110611046577f4e487b7100000000000000000000000000000000000000000000000000000000600052603260045260246000fd5b602002602001018181525050808061105d90613b59565b915050610ffb565b508092505050919050565b662386f26fc1000081565b6000600a60009054906101000a900473ffffffffffffffffffffffffffffffffffffffff16905090565b6060600180546110b490613b27565b80601f01602080910402602001604051908101604052809291908181526020018280546110e090613b27565b801561112d5780601f106111025761010080835404028352916020019161112d565b820191906000526020600020905b81548152906001019060200180831161111057829003601f168201915b5050505050905090565b6111496111426115be565b8383611aa4565b5050565b61115e6111586115be565b836116a4565b61119d576040517f08c379a000000000000000000000000000000000000000000000000000000000815260040161119490613843565b60405180910390fd5b6111a984848484611c11565b50505050565b60606111ba82611552565b6111f9576040517f08c379a00000000000000000000000000000000000000000000000000000000081526004016111f0906137e3565b60405180910390fd5b6000611203611c6d565b90506000815111611223576040518060200160405280600081525061124e565b8061122d84611cff565b60405160200161123e9291906134e4565b6040516020818303038152906040525b915050919050565b600c805461126390613b27565b80601f016020809104026020016040519081016040528092919081815260200182805461128f90613b27565b80156112dc5780601f106112b1576101008083540402835291602001916112dc565b820191906000526020600020905b8154815290600101906020018083116112bf57829003601f168201915b505050505081565b6000600560008473ffffffffffffffffffffffffffffffffffffffff1673ffffffffffffffffffffffffffffffffffffffff16815260200190815260200160002060008373ffffffffffffffffffffffffffffffffffffffff1673ffffffffffffffffffffffffffffffffffffffff16815260200190815260200160002060009054906101000a900460ff16905092915050565b6113806115be565b73ffffffffffffffffffffffffffffffffffffffff1661139e61107b565b73ffffffffffffffffffffffffffffffffffffffff16146113f4576040517f08c379a00000000000000000000000000000000000000000000000000000000081526004016113eb906137a3565b60405180910390fd5b600073ffffffffffffffffffffffffffffffffffffffff168173ffffffffffffffffffffffffffffffffffffffff161415611464576040517f08c379a000000000000000000000000000000000000000000000000000000000815260040161145b90613623565b60405180910390fd5b61146d816119de565b50565b60007f80ac58cd000000000000000000000000000000000000000000000000000000007bffffffffffffffffffffffffffffffffffffffffffffffffffffffff1916827bffffffffffffffffffffffffffffffffffffffffffffffffffffffff1916148061153b57507f5b5e139f000000000000000000000000000000000000000000000000000000007bffffffffffffffffffffffffffffffffffffffffffffffffffffffff1916827bffffffffffffffffffffffffffffffffffffffffffffffffffffffff1916145b8061154b575061154a82611eac565b5b9050919050565b60008073ffffffffffffffffffffffffffffffffffffffff166002600084815260200190815260200160002060009054906101000a900473ffffffffffffffffffffffffffffffffffffffff1673ffffffffffffffffffffffffffffffffffffffff1614159050919050565b600033905090565b816004600083815260200190815260200160002060006101000a81548173ffffffffffffffffffffffffffffffffffffffff021916908373ffffffffffffffffffffffffffffffffffffffff160217905550808273ffffffffffffffffffffffffffffffffffffffff1661163983610d84565b73ffffffffffffffffffffffffffffffffffffffff167f8c5be1e5ebec7d5bd14f71427d1e84f3dd0314c0f7b2291e5b200ac8c7c3b92560405160405180910390a45050565b600061168b600b611f16565b90506116973382611f24565b6116a1600b611f42565b50565b60006116af82611552565b6116ee576040517f08c379a00000000000000000000000000000000000000000000000000000000081526004016116e5906136c3565b60405180910390fd5b60006116f983610d84565b90508073ffffffffffffffffffffffffffffffffffffffff168473ffffffffffffffffffffffffffffffffffffffff16148061176857508373ffffffffffffffffffffffffffffffffffffffff166117508461071a565b73ffffffffffffffffffffffffffffffffffffffff16145b80611779575061177881856112e4565b5b91505092915050565b8273ffffffffffffffffffffffffffffffffffffffff166117a282610d84565b73ffffffffffffffffffffffffffffffffffffffff16146117f8576040517f08c379a00000000000000000000000000000000000000000000000000000000081526004016117ef906137c3565b60405180910390fd5b600073ffffffffffffffffffffffffffffffffffffffff168273ffffffffffffffffffffffffffffffffffffffff161415611868576040517f08c379a000000000000000000000000000000000000000000000000000000000815260040161185f90613663565b60405180910390fd5b611873838383611f58565b61187e6000826115c6565b6001600360008573ffffffffffffffffffffffffffffffffffffffff1673ffffffffffffffffffffffffffffffffffffffff16815260200190815260200160002060008282546118ce9190613a3d565b925050819055506001600360008473ffffffffffffffffffffffffffffffffffffffff1673ffffffffffffffffffffffffffffffffffffffff168152602001908152602001600020600082825461192591906139b6565b92505081905550816002600083815260200190815260200160002060006101000a81548173ffffffffffffffffffffffffffffffffffffffff021916908373ffffffffffffffffffffffffffffffffffffffff160217905550808273ffffffffffffffffffffffffffffffffffffffff168473ffffffffffffffffffffffffffffffffffffffff167fddf252ad1be2c89b69c2b068fc378daa952ba7f163c4a11628f55a4df523b3ef60405160405180910390a4505050565b6000600a60009054906101000a900473ffffffffffffffffffffffffffffffffffffffff16905081600a60006101000a81548173ffffffffffffffffffffffffffffffffffffffff021916908373ffffffffffffffffffffffffffffffffffffffff1602179055508173ffffffffffffffffffffffffffffffffffffffff168173ffffffffffffffffffffffffffffffffffffffff167f8be0079c531659141344cd1fd0a4f28419497f9722a3daafe3b4186f6b6457e060405160405180910390a35050565b8173ffffffffffffffffffffffffffffffffffffffff168373ffffffffffffffffffffffffffffffffffffffff161415611b13576040517f08c379a0000000000000000000000000000000000000000000000000000000008152600401611b0a90613683565b60405180910390fd5b80600560008573ffffffffffffffffffffffffffffffffffffffff1673ffffffffffffffffffffffffffffffffffffffff16815260200190815260200160002060008473ffffffffffffffffffffffffffffffffffffffff1673ffffffffffffffffffffffffffffffffffffffff16815260200190815260200160002060006101000a81548160ff0219169083151502179055508173ffffffffffffffffffffffffffffffffffffffff168373ffffffffffffffffffffffffffffffffffffffff167f17307eab39ab6107e8899845ad3d59bd9653f200f220920489ca2b5937696c3183604051611c0491906135a6565b60405180910390a3505050565b611c1c848484611782565b611c288484848461206c565b611c67576040517f08c379a0000000000000000000000000000000000000000000000000000000008152600401611c5e90613603565b60405180910390fd5b50505050565b6060600c8054611c7c90613b27565b80601f0160208091040260200160405190810160405280929190818152602001828054611ca890613b27565b8015611cf55780601f10611cca57610100808354040283529160200191611cf5565b820191906000526020600020905b815481529060010190602001808311611cd857829003601f168201915b5050505050905090565b60606000821415611d47576040518060400160405280600181526020017f30000000000000000000000000000000000000000000000000000000000000008152509050611ea7565b600082905060005b60008214611d79578080611d6290613b59565b915050600a82611d729190613a0c565b9150611d4f565b60008167ffffffffffffffff811115611dbb577f4e487b7100000000000000000000000000000000000000000000000000000000600052604160045260246000fd5b6040519080825280601f01601f191660200182016040528015611ded5781602001600182028036833780820191505090505b5090505b60008514611ea057600182611e069190613a3d565b9150600a85611e159190613ba2565b6030611e2191906139b6565b60f81b818381518110611e5d577f4e487b7100000000000000000000000000000000000000000000000000000000600052603260045260246000fd5b60200101907effffffffffffffffffffffffffffffffffffffffffffffffffffffffffffff1916908160001a905350600a85611e999190613a0c565b9450611df1565b8093505050505b919050565b60007f01ffc9a7000000000000000000000000000000000000000000000000000000007bffffffffffffffffffffffffffffffffffffffffffffffffffffffff1916827bffffffffffffffffffffffffffffffffffffffffffffffffffffffff1916149050919050565b600081600001549050919050565b611f3e828260405180602001604052806000815250612203565b5050565b6001816000016000828254019250508190555050565b611f6383838361225e565b600073ffffffffffffffffffffffffffffffffffffffff168373ffffffffffffffffffffffffffffffffffffffff161415611fa657611fa181612263565b611fe5565b8173ffffffffffffffffffffffffffffffffffffffff168373ffffffffffffffffffffffffffffffffffffffff1614611fe457611fe383826122ac565b5b5b600073ffffffffffffffffffffffffffffffffffffffff168273ffffffffffffffffffffffffffffffffffffffff1614156120285761202381612419565b612067565b8273ffffffffffffffffffffffffffffffffffffffff168273ffffffffffffffffffffffffffffffffffffffff161461206657612065828261255c565b5b5b505050565b600061208d8473ffffffffffffffffffffffffffffffffffffffff166125db565b156121f6578373ffffffffffffffffffffffffffffffffffffffff1663150b7a026120b66115be565b8786866040518563ffffffff1660e01b81526004016120d89493929190613538565b602060405180830381600087803b1580156120f257600080fd5b505af192505050801561212357506040513d601f19601f820116820180604052508101906121209190612b68565b60015b6121a6573d8060008114612153576040519150601f19603f3d011682016040523d82523d6000602084013e612158565b606091505b5060008151141561219e576040517f08c379a000000000000000000000000000000000000000000000000000000000815260040161219590613603565b60405180910390fd5b805181602001fd5b63150b7a0260e01b7bffffffffffffffffffffffffffffffffffffffffffffffffffffffff1916817bffffffffffffffffffffffffffffffffffffffffffffffffffffffff1916149150506121fb565b600190505b949350505050565b61220d83836125ee565b61221a600084848461206c565b612259576040517f08c379a000000000000000000000000000000000000000000000000000000000815260040161225090613603565b60405180910390fd5b505050565b505050565b6008805490506009600083815260200190815260200160002081905550600881908060018154018082558091505060019003906000526020600020016000909190919091505550565b600060016122b984610e36565b6122c39190613a3d565b90506000600760008481526020019081526020016000205490508181146123a8576000600660008673ffffffffffffffffffffffffffffffffffffffff1673ffffffffffffffffffffffffffffffffffffffff168152602001908152602001600020600084815260200190815260200160002054905080600660008773ffffffffffffffffffffffffffffffffffffffff1673ffffffffffffffffffffffffffffffffffffffff168152602001908152602001600020600084815260200190815260200160002081905550816007600083815260200190815260200160002081905550505b6007600084815260200190815260200160002060009055600660008573ffffffffffffffffffffffffffffffffffffffff1673ffffffffffffffffffffffffffffffffffffffff16815260200190815260200160002060008381526020019081526020016000206000905550505050565b6000600160088054905061242d9190613a3d565b9050600060096000848152602001908152602001600020549050600060088381548110612483577f4e487b7100000000000000000000000000000000000000000000000000000000600052603260045260246000fd5b9060005260206000200154905080600883815481106124cb577f4e487b7100000000000000000000000000000000000000000000000000000000600052603260045260246000fd5b906000526020600020018190555081600960008381526020019081526020016000208190555060096000858152602001908152602001600020600090556008805480612540577f4e487b7100000000000000000000000000000000000000000000000000000000600052603160045260246000fd5b6001900381819060005260206000200160009055905550505050565b600061256783610e36565b905081600660008573ffffffffffffffffffffffffffffffffffffffff1673ffffffffffffffffffffffffffffffffffffffff168152602001908152602001600020600083815260200190815260200160002081905550806007600084815260200190815260200160002081905550505050565b600080823b905060008111915050919050565b600073ffffffffffffffffffffffffffffffffffffffff168273ffffffffffffffffffffffffffffffffffffffff16141561265e576040517f08c379a000000000000000000000000000000000000000000000000000000000815260040161265590613743565b60405180910390fd5b61266781611552565b156126a7576040517f08c379a000000000000000000000000000000000000000000000000000000000815260040161269e90613643565b60405180910390fd5b6126b360008383611f58565b6001600360008473ffffffffffffffffffffffffffffffffffffffff1673ffffffffffffffffffffffffffffffffffffffff168152602001908152602001600020600082825461270391906139b6565b92505081905550816002600083815260200190815260200160002060006101000a81548173ffffffffffffffffffffffffffffffffffffffff021916908373ffffffffffffffffffffffffffffffffffffffff160217905550808273ffffffffffffffffffffffffffffffffffffffff16600073ffffffffffffffffffffffffffffffffffffffff167fddf252ad1be2c89b69c2b068fc378daa952ba7f163c4a11628f55a4df523b3ef60405160405180910390a45050565b8280546127c890613b27565b90600052602060002090601f0160209004810192826127ea5760008555612831565b82601f1061280357805160ff1916838001178555612831565b82800160010185558215612831579182015b82811115612830578251825591602001919060010190612815565b5b50905061283e9190612842565b5090565b5b8082111561285b576000816000905550600101612843565b5090565b600061287261286d846138cf565b61389e565b90508281526020810184848401111561288a57600080fd5b612895848285613ae5565b509392505050565b60006128b06128ab846138ff565b61389e565b9050828152602081018484840111156128c857600080fd5b6128d3848285613ae5565b509392505050565b6000813590506128ea81613ca0565b92915050565b6000813590506128ff81613cb7565b92915050565b60008135905061291481613cce565b92915050565b60008151905061292981613cce565b92915050565b600082601f83011261294057600080fd5b813561295084826020860161285f565b91505092915050565b600082601f83011261296a57600080fd5b813561297a84826020860161289d565b91505092915050565b60008135905061299281613ce5565b92915050565b6000602082840312156129aa57600080fd5b60006129b8848285016128db565b91505092915050565b600080604083850312156129d457600080fd5b60006129e2858286016128db565b92505060206129f3858286016128db565b9150509250929050565b600080600060608486031215612a1257600080fd5b6000612a20868287016128db565b9350506020612a31868287016128db565b9250506040612a4286828701612983565b9150509250925092565b60008060008060808587031215612a6257600080fd5b6000612a70878288016128db565b9450506020612a81878288016128db565b9350506040612a9287828801612983565b925050606085013567ffffffffffffffff811115612aaf57600080fd5b612abb8782880161292f565b91505092959194509250565b60008060408385031215612ada57600080fd5b6000612ae8858286016128db565b9250506020612af9858286016128f0565b9150509250929050565b60008060408385031215612b1657600080fd5b6000612b24858286016128db565b9250506020612b3585828601612983565b9150509250929050565b600060208284031215612b5157600080fd5b6000612b5f84828501612905565b91505092915050565b600060208284031215612b7a57600080fd5b6000612b888482850161291a565b91505092915050565b600060208284031215612ba357600080fd5b600082013567ffffffffffffffff811115612bbd57600080fd5b612bc984828501612959565b91505092915050565b600060208284031215612be457600080fd5b6000612bf284828501612983565b91505092915050565b6000612c0783836134c6565b60208301905092915050565b612c1c81613a71565b82525050565b6000612c2d8261393f565b612c37818561396d565b9350612c428361392f565b8060005b83811015612c73578151612c5a8882612bfb565b9750612c6583613960565b925050600181019050612c46565b5085935050505092915050565b612c8981613a83565b82525050565b6000612c9a8261394a565b612ca4818561397e565b9350612cb4818560208601613af4565b612cbd81613c8f565b840191505092915050565b6000612cd382613955565b612cdd818561399a565b9350612ced818560208601613af4565b612cf681613c8f565b840191505092915050565b6000612d0c82613955565b612d1681856139ab565b9350612d26818560208601613af4565b80840191505092915050565b6000612d3f602b8361399a565b91507f455243373231456e756d657261626c653a206f776e657220696e646578206f7560008301527f74206f6620626f756e64730000000000000000000000000000000000000000006020830152604082019050919050565b6000612da560328361399a565b91507f4552433732313a207472616e7366657220746f206e6f6e20455243373231526560008301527f63656976657220696d706c656d656e74657200000000000000000000000000006020830152604082019050919050565b6000612e0b60268361399a565b91507f4f776e61626c653a206e6577206f776e657220697320746865207a65726f206160008301527f64647265737300000000000000000000000000000000000000000000000000006020830152604082019050919050565b6000612e71601c8361399a565b91507f4552433732313a20746f6b656e20616c7265616479206d696e746564000000006000830152602082019050919050565b6000612eb160248361399a565b91507f4552433732313a207472616e7366657220746f20746865207a65726f2061646460008301527f72657373000000000000000000000000000000000000000000000000000000006020830152604082019050919050565b6000612f1760198361399a565b91507f4552433732313a20617070726f766520746f2063616c6c6572000000000000006000830152602082019050919050565b6000612f5760228361399a565b91507f4e6f7420656e6f75676820657468657220746f207075726368617365204e465460008301527f732e0000000000000000000000000000000000000000000000000000000000006020830152604082019050919050565b6000612fbd602c8361399a565b91507f4552433732313a206f70657261746f7220717565727920666f72206e6f6e657860008301527f697374656e7420746f6b656e00000000000000000000000000000000000000006020830152604082019050919050565b600061302360388361399a565b91507f4552433732313a20617070726f76652063616c6c6572206973206e6f74206f7760008301527f6e6572206e6f7220617070726f76656420666f7220616c6c00000000000000006020830152604082019050919050565b6000613089602a8361399a565b91507f4552433732313a2062616c616e636520717565727920666f7220746865207a6560008301527f726f2061646472657373000000000000000000000000000000000000000000006020830152604082019050919050565b60006130ef60298361399a565b91507f4552433732313a206f776e657220717565727920666f72206e6f6e657869737460008301527f656e7420746f6b656e00000000000000000000000000000000000000000000006020830152604082019050919050565b600061315560208361399a565b91507f4552433732313a206d696e7420746f20746865207a65726f20616464726573736000830152602082019050919050565b600061319560198361399a565b91507f4e6f206574686572206c65667420746f207769746864726177000000000000006000830152602082019050919050565b60006131d5602c8361399a565b91507f4552433732313a20617070726f76656420717565727920666f72206e6f6e657860008301527f697374656e7420746f6b656e00000000000000000000000000000000000000006020830152604082019050919050565b600061323b60208361399a565b91507f4f776e61626c653a2063616c6c6572206973206e6f7420746865206f776e65726000830152602082019050919050565b600061327b60298361399a565b91507f4552433732313a207472616e73666572206f6620746f6b656e2074686174206960008301527f73206e6f74206f776e00000000000000000000000000000000000000000000006020830152604082019050919050565b60006132e1602f8361399a565b91507f4552433732314d657461646174613a2055524920717565727920666f72206e6f60008301527f6e6578697374656e7420746f6b656e00000000000000000000000000000000006020830152604082019050919050565b600061334760218361399a565b91507f4552433732313a20617070726f76616c20746f2063757272656e74206f776e6560008301527f72000000000000000000000000000000000000000000000000000000000000006020830152604082019050919050565b60006133ad60008361398f565b9150600082019050919050565b60006133c760108361399a565b91507f5472616e73666572206661696c65642e000000000000000000000000000000006000830152602082019050919050565b600061340760318361399a565b91507f4552433732313a207472616e736665722063616c6c6572206973206e6f74206f60008301527f776e6572206e6f7220617070726f7665640000000000000000000000000000006020830152604082019050919050565b600061346d602c8361399a565b91507f455243373231456e756d657261626c653a20676c6f62616c20696e646578206f60008301527f7574206f6620626f756e647300000000000000000000000000000000000000006020830152604082019050919050565b6134cf81613adb565b82525050565b6134de81613adb565b82525050565b60006134f08285612d01565b91506134fc8284612d01565b91508190509392505050565b6000613513826133a0565b9150819050919050565b60006020820190506135326000830184612c13565b92915050565b600060808201905061354d6000830187612c13565b61355a6020830186612c13565b61356760408301856134d5565b81810360608301526135798184612c8f565b905095945050505050565b6000602082019050818103600083015261359e8184612c22565b905092915050565b60006020820190506135bb6000830184612c80565b92915050565b600060208201905081810360008301526135db8184612cc8565b905092915050565b600060208201905081810360008301526135fc81612d32565b9050919050565b6000602082019050818103600083015261361c81612d98565b9050919050565b6000602082019050818103600083015261363c81612dfe565b9050919050565b6000602082019050818103600083015261365c81612e64565b9050919050565b6000602082019050818103600083015261367c81612ea4565b9050919050565b6000602082019050818103600083015261369c81612f0a565b9050919050565b600060208201905081810360008301526136bc81612f4a565b9050919050565b600060208201905081810360008301526136dc81612fb0565b9050919050565b600060208201905081810360008301526136fc81613016565b9050919050565b6000602082019050818103600083015261371c8161307c565b9050919050565b6000602082019050818103600083015261373c816130e2565b9050919050565b6000602082019050818103600083015261375c81613148565b9050919050565b6000602082019050818103600083015261377c81613188565b9050919050565b6000602082019050818103600083015261379c816131c8565b9050919050565b600060208201905081810360008301526137bc8161322e565b9050919050565b600060208201905081810360008301526137dc8161326e565b9050919050565b600060208201905081810360008301526137fc816132d4565b9050919050565b6000602082019050818103600083015261381c8161333a565b9050919050565b6000602082019050818103600083015261383c816133ba565b9050919050565b6000602082019050818103600083015261385c816133fa565b9050919050565b6000602082019050818103600083015261387c81613460565b9050919050565b600060208201905061389860008301846134d5565b92915050565b6000604051905081810181811067ffffffffffffffff821117156138c5576138c4613c60565b5b8060405250919050565b600067ffffffffffffffff8211156138ea576138e9613c60565b5b601f19601f8301169050602081019050919050565b600067ffffffffffffffff82111561391a57613919613c60565b5b601f19601f8301169050602081019050919050565b6000819050602082019050919050565b600081519050919050565b600081519050919050565b600081519050919050565b6000602082019050919050565b600082825260208201905092915050565b600082825260208201905092915050565b600081905092915050565b600082825260208201905092915050565b600081905092915050565b60006139c182613adb565b91506139cc83613adb565b9250827fffffffffffffffffffffffffffffffffffffffffffffffffffffffffffffffff03821115613a0157613a00613bd3565b5b828201905092915050565b6000613a1782613adb565b9150613a2283613adb565b925082613a3257613a31613c02565b5b828204905092915050565b6000613a4882613adb565b9150613a5383613adb565b925082821015613a6657613a65613bd3565b5b828203905092915050565b6000613a7c82613abb565b9050919050565b60008115159050919050565b60007fffffffff0000000000000000000000000000000000000000000000000000000082169050919050565b600073ffffffffffffffffffffffffffffffffffffffff82169050919050565b6000819050919050565b82818337600083830152505050565b60005b83811015613b12578082015181840152602081019050613af7565b83811115613b21576000848401525b50505050565b60006002820490506001821680613b3f57607f821691505b60208210811415613b5357613b52613c31565b5b50919050565b6000613b6482613adb565b91507fffffffffffffffffffffffffffffffffffffffffffffffffffffffffffffffff821415613b9757613b96613bd3565b5b600182019050919050565b6000613bad82613adb565b9150613bb883613adb565b925082613bc857613bc7613c02565b5b828206905092915050565b7f4e487b7100000000000000000000000000000000000000000000000000000000600052601160045260246000fd5b7f4e487b7100000000000000000000000000000000000000000000000000000000600052601260045260246000fd5b7f4e487b7100000000000000000000000000000000000000000000000000000000600052602260045260246000fd5b7f4e487b7100000000000000000000000000000000000000000000000000000000600052604160045260246000fd5b6000601f19601f8301169050919050565b613ca981613a71565b8114613cb457600080fd5b50565b613cc081613a83565b8114613ccb57600080fd5b50565b613cd781613a8f565b8114613ce257600080fd5b50565b613cee81613adb565b8114613cf957600080fd5b5056fea264697066735822122052e6b48f340a75b3c30c87f88ecec0a0b33fd6f3dce68330ffc14c4290521db764736f6c63430008000033",
  "linkReferences": {},
  "deployedLinkReferences": {}
}